{
  "_format": "hh-sol-artifact-1",
  "contractName": "ParimutuelBetting",
  "sourceName": "contracts/ParimutuelBetting.sol",
  "abi": [
    {
      "inputs": [
        {
          "internalType": "address",
          "name": "_usdcAddress",
          "type": "address"
        }
      ],
      "stateMutability": "nonpayable",
      "type": "constructor"
    },
    {
      "inputs": [
        {
          "internalType": "address",
          "name": "owner",
          "type": "address"
        }
      ],
      "name": "OwnableInvalidOwner",
      "type": "error"
    },
    {
      "inputs": [
        {
          "internalType": "address",
          "name": "account",
          "type": "address"
        }
      ],
      "name": "OwnableUnauthorizedAccount",
      "type": "error"
    },
    {
      "inputs": [],
      "name": "ReentrancyGuardReentrantCall",
      "type": "error"
    },
    {
      "inputs": [
        {
          "internalType": "address",
          "name": "token",
          "type": "address"
        }
      ],
      "name": "SafeERC20FailedOperation",
      "type": "error"
    },
    {
      "anonymous": false,
      "inputs": [
        {
          "indexed": true,
          "internalType": "address",
          "name": "bettor",
          "type": "address"
        },
        {
          "indexed": true,
          "internalType": "uint32",
          "name": "raceId",
          "type": "uint32"
        },
        {
          "indexed": false,
          "internalType": "uint256",
          "name": "amount",
          "type": "uint256"
        },
        {
          "indexed": false,
          "internalType": "uint16",
          "name": "racerId",
          "type": "uint16"
        }
      ],
      "name": "BetPlaced",
      "type": "event"
    },
    {
      "anonymous": false,
      "inputs": [
        {
          "indexed": true,
          "internalType": "uint256",
          "name": "raceId",
          "type": "uint256"
        }
      ],
      "name": "BettingClosed",
      "type": "event"
    },
    {
      "anonymous": false,
      "inputs": [
        {
          "indexed": true,
          "internalType": "address",
          "name": "previousOwner",
          "type": "address"
        },
        {
          "indexed": true,
          "internalType": "address",
          "name": "newOwner",
          "type": "address"
        }
      ],
      "name": "OwnershipTransferred",
      "type": "event"
    },
    {
      "anonymous": false,
      "inputs": [
        {
          "indexed": true,
          "internalType": "uint256",
          "name": "raceId",
          "type": "uint256"
        },
        {
          "indexed": false,
          "internalType": "uint16",
          "name": "numberOfRacers",
          "type": "uint16"
        }
      ],
      "name": "RaceCreated",
      "type": "event"
    },
    {
      "anonymous": false,
      "inputs": [
        {
          "indexed": true,
          "internalType": "uint256",
          "name": "raceId",
          "type": "uint256"
        },
        {
          "indexed": false,
          "internalType": "uint16",
          "name": "winnerRacerNo",
          "type": "uint16"
        },
        {
          "indexed": false,
          "internalType": "uint256",
          "name": "winningsPool",
          "type": "uint256"
        }
      ],
      "name": "RaceFinished",
      "type": "event"
    },
    {
      "inputs": [
        {
          "internalType": "uint256",
          "name": "raceId",
          "type": "uint256"
        }
      ],
      "name": "closeBetting",
      "outputs": [],
      "stateMutability": "nonpayable",
      "type": "function"
    },
    {
      "inputs": [
        {
          "internalType": "uint256",
          "name": "amount",
          "type": "uint256"
        }
      ],
      "name": "deposit",
      "outputs": [],
      "stateMutability": "nonpayable",
      "type": "function"
    },
    {
      "inputs": [
        {
          "internalType": "uint32",
          "name": "raceId",
          "type": "uint32"
        },
        {
          "internalType": "uint16",
          "name": "winnerRacerNo",
          "type": "uint16"
        }
      ],
      "name": "finishRace",
      "outputs": [],
      "stateMutability": "nonpayable",
      "type": "function"
    },
    {
      "inputs": [
        {
          "internalType": "uint256",
          "name": "raceId",
          "type": "uint256"
        }
      ],
      "name": "getRaceDetails",
      "outputs": [
        {
          "internalType": "enum ParimutuelBetting.RaceStatus",
          "name": "status",
          "type": "uint8"
        },
        {
          "internalType": "uint16",
          "name": "numberOfRacers",
          "type": "uint16"
        },
        {
          "internalType": "uint16",
          "name": "winner",
          "type": "uint16"
        },
        {
          "internalType": "uint256",
          "name": "totalPool",
          "type": "uint256"
        }
      ],
      "stateMutability": "view",
      "type": "function"
    },
    {
      "inputs": [
        {
          "internalType": "uint256",
          "name": "raceId",
          "type": "uint256"
        }
      ],
      "name": "getRaceWinner",
      "outputs": [
        {
          "internalType": "uint16",
          "name": "",
          "type": "uint16"
        }
      ],
      "stateMutability": "view",
      "type": "function"
    },
    {
      "inputs": [
        {
          "internalType": "uint256",
          "name": "raceId",
          "type": "uint256"
        },
        {
          "internalType": "uint256",
          "name": "racerId",
          "type": "uint256"
        }
      ],
      "name": "getTotalBetsForRacer",
      "outputs": [
        {
          "internalType": "uint256",
          "name": "",
          "type": "uint256"
        }
      ],
      "stateMutability": "view",
      "type": "function"
    },
    {
      "inputs": [
        {
          "internalType": "uint256",
          "name": "raceId",
          "type": "uint256"
        },
        {
          "internalType": "address",
          "name": "user",
          "type": "address"
        }
      ],
      "name": "getUserBetDetails",
      "outputs": [
        {
          "internalType": "uint256",
          "name": "",
          "type": "uint256"
        },
        {
          "internalType": "uint16",
          "name": "",
          "type": "uint16"
        }
      ],
      "stateMutability": "view",
      "type": "function"
    },
    {
      "inputs": [],
      "name": "houseTakePercentage",
      "outputs": [
        {
          "internalType": "uint8",
          "name": "",
          "type": "uint8"
        }
      ],
      "stateMutability": "view",
      "type": "function"
    },
    {
      "inputs": [
        {
          "internalType": "uint256",
          "name": "raceId",
          "type": "uint256"
        }
      ],
      "name": "isRaceOpenForBetting",
      "outputs": [
        {
          "internalType": "bool",
          "name": "",
          "type": "bool"
        }
      ],
      "stateMutability": "view",
      "type": "function"
    },
    {
      "inputs": [],
      "name": "nextRaceId",
      "outputs": [
        {
          "internalType": "uint32",
          "name": "",
          "type": "uint32"
        }
      ],
      "stateMutability": "view",
      "type": "function"
    },
    {
      "inputs": [],
      "name": "nonAttributedTokens",
      "outputs": [
        {
          "internalType": "uint256",
          "name": "",
          "type": "uint256"
        }
      ],
      "stateMutability": "view",
      "type": "function"
    },
    {
      "inputs": [],
      "name": "owner",
      "outputs": [
        {
          "internalType": "address",
          "name": "",
          "type": "address"
        }
      ],
      "stateMutability": "view",
      "type": "function"
    },
    {
      "inputs": [
        {
          "internalType": "uint256",
          "name": "amount",
          "type": "uint256"
        }
      ],
      "name": "ownerDeposit",
      "outputs": [],
      "stateMutability": "nonpayable",
      "type": "function"
    },
    {
      "inputs": [
        {
          "internalType": "uint256",
          "name": "amount",
          "type": "uint256"
        }
      ],
      "name": "ownerWithdraw",
      "outputs": [],
      "stateMutability": "nonpayable",
      "type": "function"
    },
    {
      "inputs": [
        {
          "internalType": "uint32",
          "name": "raceId",
          "type": "uint32"
        },
        {
          "internalType": "uint16",
          "name": "racerId",
          "type": "uint16"
        },
        {
          "internalType": "uint256",
          "name": "amount",
          "type": "uint256"
        }
      ],
      "name": "placeBet",
      "outputs": [],
      "stateMutability": "nonpayable",
      "type": "function"
    },
    {
      "inputs": [
        {
          "internalType": "uint256",
          "name": "",
          "type": "uint256"
        }
      ],
      "name": "races",
      "outputs": [
        {
          "internalType": "enum ParimutuelBetting.RaceStatus",
          "name": "status",
          "type": "uint8"
        },
        {
          "internalType": "uint16",
          "name": "numberOfRacers",
          "type": "uint16"
        },
        {
          "internalType": "uint16",
          "name": "winner",
          "type": "uint16"
        },
        {
          "internalType": "uint32",
          "name": "id",
          "type": "uint32"
        },
        {
          "internalType": "uint256",
          "name": "totalPool",
          "type": "uint256"
        }
      ],
      "stateMutability": "view",
      "type": "function"
    },
    {
      "inputs": [],
      "name": "renounceOwnership",
      "outputs": [],
      "stateMutability": "nonpayable",
      "type": "function"
    },
    {
      "inputs": [
        {
          "internalType": "uint16",
          "name": "numberOfRacers",
          "type": "uint16"
        }
      ],
      "name": "startNewRace",
      "outputs": [],
      "stateMutability": "nonpayable",
      "type": "function"
    },
    {
      "inputs": [
        {
          "internalType": "address",
          "name": "newOwner",
          "type": "address"
        }
      ],
      "name": "transferOwnership",
      "outputs": [],
      "stateMutability": "nonpayable",
      "type": "function"
    },
    {
      "inputs": [
        {
          "internalType": "uint8",
          "name": "_percentage",
          "type": "uint8"
        }
      ],
      "name": "updateHouseTakePercentage",
      "outputs": [],
      "stateMutability": "nonpayable",
      "type": "function"
    },
    {
      "inputs": [],
      "name": "usdc",
      "outputs": [
        {
          "internalType": "contract IERC20",
          "name": "",
          "type": "address"
        }
      ],
      "stateMutability": "view",
      "type": "function"
    },
    {
      "inputs": [
        {
          "internalType": "address",
          "name": "",
          "type": "address"
        }
      ],
      "name": "userBalances",
      "outputs": [
        {
          "internalType": "uint256",
          "name": "",
          "type": "uint256"
        }
      ],
      "stateMutability": "view",
      "type": "function"
    },
    {
      "inputs": [],
      "name": "withdrawBalance",
      "outputs": [],
      "stateMutability": "nonpayable",
      "type": "function"
    },
    {
      "inputs": [
        {
          "internalType": "uint256",
          "name": "amount",
          "type": "uint256"
        }
      ],
      "name": "withdrawEth",
      "outputs": [],
      "stateMutability": "nonpayable",
      "type": "function"
    },
    {
      "inputs": [
        {
          "internalType": "uint256",
          "name": "raceId",
          "type": "uint256"
        },
        {
          "internalType": "bool",
          "name": "withdrawToExternalAddress",
          "type": "bool"
        }
      ],
      "name": "withdrawWinnings",
      "outputs": [],
      "stateMutability": "nonpayable",
      "type": "function"
    },
    {
      "stateMutability": "payable",
      "type": "receive"
    }
  ],
  "bytecode": "0x60a06040526014600260006101000a81548160ff021916908360ff1602179055503480156200002d57600080fd5b50604051620030473803806200304783398181016040528101906200005391906200026d565b33600073ffffffffffffffffffffffffffffffffffffffff168173ffffffffffffffffffffffffffffffffffffffff1603620000c95760006040517f1e4fbdf7000000000000000000000000000000000000000000000000000000008152600401620000c09190620002b0565b60405180910390fd5b620000da816200013f60201b60201c565b50600180819055508073ffffffffffffffffffffffffffffffffffffffff1660808173ffffffffffffffffffffffffffffffffffffffff16815250506001600260016101000a81548163ffffffff021916908363ffffffff16021790555050620002cd565b60008060009054906101000a900473ffffffffffffffffffffffffffffffffffffffff169050816000806101000a81548173ffffffffffffffffffffffffffffffffffffffff021916908373ffffffffffffffffffffffffffffffffffffffff1602179055508173ffffffffffffffffffffffffffffffffffffffff168173ffffffffffffffffffffffffffffffffffffffff167f8be0079c531659141344cd1fd0a4f28419497f9722a3daafe3b4186f6b6457e060405160405180910390a35050565b600080fd5b600073ffffffffffffffffffffffffffffffffffffffff82169050919050565b6000620002358262000208565b9050919050565b620002478162000228565b81146200025357600080fd5b50565b60008151905062000267816200023c565b92915050565b60006020828403121562000286576200028562000203565b5b6000620002968482850162000256565b91505092915050565b620002aa8162000228565b82525050565b6000602082019050620002c760008301846200029f565b92915050565b608051612d3b6200030c600039600081816107ac01528181610c8d01528181610cd601528181610ef20152818161107d01526118260152612d3b6000f3fe60806040526004361061016a5760003560e01c8063715018a6116100d1578063aa2ac7821161008a578063c311d04911610064578063c311d049146105be578063d5165a17146105e7578063d9b8fd8f14610612578063f2fde38b1461063d576101e6565b8063aa2ac7821461052f578063b4ad06a11461056c578063b6b55f2514610595576101e6565b8063715018a61461040557806373fbb1291461041c5780637a74a5171461045a5780637a9ef7281461049a5780637bbc469e146104c35780638da5cb5b14610504576101e6565b80632903af68116101235780632903af681461030b5780632b928cd31461033457806333f707d1146103715780633e413bee1461039a578063401729fa146103c55780635fd8c710146103ee576101e6565b80630aa23eb4146101eb57806311474a4214610228578063141833dc1461025357806317ec4b791461027c57806326224c64146102a557806328a07151146102e2576101e6565b366101e657610177610666565b73ffffffffffffffffffffffffffffffffffffffff163373ffffffffffffffffffffffffffffffffffffffff16146101e4576040517f08c379a00000000000000000000000000000000000000000000000000000000081526004016101db90611da4565b60405180910390fd5b005b600080fd5b3480156101f757600080fd5b50610212600480360381019061020d9190611dff565b61068f565b60405161021f9190611e49565b60405180910390f35b34801561023457600080fd5b5061023d610746565b60405161024a9190611e80565b60405180910390f35b34801561025f57600080fd5b5061027a60048036038101906102759190611dff565b610759565b005b34801561028857600080fd5b506102a3600480360381019061029e9190611ec7565b61080d565b005b3480156102b157600080fd5b506102cc60048036038101906102c79190611f52565b610970565b6040516102d99190611f8e565b60405180910390f35b3480156102ee57600080fd5b5061030960048036038101906103049190611fd5565b610988565b005b34801561031757600080fd5b50610332600480360381019061032d919061203e565b6109f5565b005b34801561034057600080fd5b5061035b6004803603810190610356919061207e565b610be9565b6040516103689190611f8e565b60405180910390f35b34801561037d57600080fd5b5061039860048036038101906103939190611dff565b610c20565b005b3480156103a657600080fd5b506103af610cd4565b6040516103bc919061211d565b60405180910390f35b3480156103d157600080fd5b506103ec60048036038101906103e79190612170565b610cf8565b005b3480156103fa57600080fd5b50610403610fa2565b005b34801561041157600080fd5b5061041a6110cc565b005b34801561042857600080fd5b50610443600480360381019061043e91906121b0565b6110e0565b6040516104519291906121f0565b60405180910390f35b34801561046657600080fd5b50610481600480360381019061047c9190611dff565b61115e565b6040516104919493929190612290565b60405180910390f35b3480156104a657600080fd5b506104c160048036038101906104bc91906122d5565b611253565b005b3480156104cf57600080fd5b506104ea60048036038101906104e59190611dff565b611618565b6040516104fb959493929190612337565b60405180910390f35b34801561051057600080fd5b50610519610666565b6040516105269190612399565b60405180910390f35b34801561053b57600080fd5b5061055660048036038101906105519190611dff565b611687565b60405161056391906123c3565b60405180910390f35b34801561057857600080fd5b50610593600480360381019061058e9190611dff565b6116da565b005b3480156105a157600080fd5b506105bc60048036038101906105b79190611dff565b6117db565b005b3480156105ca57600080fd5b506105e560048036038101906105e09190611dff565b6118c4565b005b3480156105f357600080fd5b506105fc611960565b6040516106099190611f8e565b60405180910390f35b34801561061e57600080fd5b50610627611966565b60405161063491906123de565b60405180910390f35b34801561064957600080fd5b50610664600480360381019061065f9190611f52565b61197c565b005b60008060009054906101000a900473ffffffffffffffffffffffffffffffffffffffff16905090565b60006002808111156106a4576106a3612219565b5b6003600084815260200190815260200160002060000160009054906101000a900460ff1660028111156106da576106d9612219565b5b1461071a576040517f08c379a000000000000000000000000000000000000000000000000000000000815260040161071190612445565b60405180910390fd5b6003600083815260200190815260200160002060000160039054906101000a900461ffff169050919050565b600260009054906101000a900460ff1681565b610761611a02565b600081116107a4576040517f08c379a000000000000000000000000000000000000000000000000000000000815260040161079b906124b1565b60405180910390fd5b6107f13330837f000000000000000000000000000000000000000000000000000000000000000073ffffffffffffffffffffffffffffffffffffffff16611a89909392919063ffffffff16565b80600560008282546108039190612500565b9250508190555050565b610815611a02565b60028161ffff16101561085d576040517f08c379a000000000000000000000000000000000000000000000000000000000815260040161085490612580565b60405180910390fd5b60006002600181819054906101000a900463ffffffff1680929190610881906125a0565b91906101000a81548163ffffffff021916908363ffffffff16021790555090506000600360008363ffffffff1681526020019081526020016000209050818160000160056101000a81548163ffffffff021916908363ffffffff160217905550828160000160016101000a81548161ffff021916908361ffff16021790555060008160000160006101000a81548160ff0219169083600281111561092857610927612219565b5b02179055508163ffffffff167f7cd39f1c24566f400bb30d15f6650bdd687a7b0624d457cfcd8a8ace4ea941fb846040516109639190611e49565b60405180910390a2505050565b60046020528060005260406000206000915090505481565b610990611a02565b601e8160ff1611156109d7576040517f08c379a00000000000000000000000000000000000000000000000000000000081526004016109ce90612618565b60405180910390fd5b80600260006101000a81548160ff021916908360ff16021790555050565b6109fd611a02565b6000600360008463ffffffff168152602001908152602001600020905060016002811115610a2e57610a2d612219565b5b8160000160009054906101000a900460ff166002811115610a5257610a51612219565b5b14610a92576040517f08c379a0000000000000000000000000000000000000000000000000000000008152600401610a8990612684565b60405180910390fd5b8060000160019054906101000a900461ffff1661ffff168261ffff1610610aee576040517f08c379a0000000000000000000000000000000000000000000000000000000008152600401610ae5906126f0565b60405180910390fd5b60028160000160006101000a81548160ff02191690836002811115610b1657610b15612219565b5b0217905550818160000160036101000a81548161ffff021916908361ffff16021790555060006064600260009054906101000a900460ff1660ff168360010154610b609190612710565b610b6a9190612781565b90508060056000828254610b7e9190612500565b925050819055506000818360010154610b9791906127b2565b90508083600101819055508463ffffffff167fb08bdb091b4998f086714eb804784e35534a2ca3ccc2715769be71b3243586a98583604051610bda9291906127e6565b60405180910390a25050505050565b6000806003600085815260200190815260200160002090508060020160008481526020019081526020016000205491505092915050565b610c28611a02565b600554811115610c6d576040517f08c379a0000000000000000000000000000000000000000000000000000000008152600401610c649061285b565b60405180910390fd5b8060056000828254610c7f91906127b2565b92505081905550610cd133827f000000000000000000000000000000000000000000000000000000000000000073ffffffffffffffffffffffffffffffffffffffff16611b0b9092919063ffffffff16565b50565b7f000000000000000000000000000000000000000000000000000000000000000081565b610d00611b8a565b6000600360008481526020019081526020016000209050600280811115610d2a57610d29612219565b5b8160000160009054906101000a900460ff166002811115610d4e57610d4d612219565b5b14610d8e576040517f08c379a0000000000000000000000000000000000000000000000000000000008152600401610d8590612445565b60405180910390fd5b60008160030160003373ffffffffffffffffffffffffffffffffffffffff1673ffffffffffffffffffffffffffffffffffffffff16815260200190815260200160002090506000816001015411610e1a576040517f08c379a0000000000000000000000000000000000000000000000000000000008152600401610e11906128ed565b60405180910390fd5b8160000160039054906101000a900461ffff1661ffff168160000160009054906101000a900461ffff1661ffff1614610e88576040517f08c379a0000000000000000000000000000000000000000000000000000000008152600401610e7f90612959565b60405180910390fd5b60008260020160008460000160039054906101000a900461ffff1661ffff16815260200190815260200160002054905060008183600101548560010154610ecf9190612710565b610ed99190612781565b9050600083600101819055508415610f3b57610f3633827f000000000000000000000000000000000000000000000000000000000000000073ffffffffffffffffffffffffffffffffffffffff16611b0b9092919063ffffffff16565b610f92565b80600460003373ffffffffffffffffffffffffffffffffffffffff1673ffffffffffffffffffffffffffffffffffffffff1681526020019081526020016000206000828254610f8a9190612500565b925050819055505b50505050610f9e611bd0565b5050565b610faa611b8a565b6000600460003373ffffffffffffffffffffffffffffffffffffffff1673ffffffffffffffffffffffffffffffffffffffff16815260200190815260200160002054905060008111611031576040517f08c379a0000000000000000000000000000000000000000000000000000000008152600401611028906129c5565b60405180910390fd5b6000600460003373ffffffffffffffffffffffffffffffffffffffff1673ffffffffffffffffffffffffffffffffffffffff168152602001908152602001600020819055506110c133827f000000000000000000000000000000000000000000000000000000000000000073ffffffffffffffffffffffffffffffffffffffff16611b0b9092919063ffffffff16565b506110ca611bd0565b565b6110d4611a02565b6110de6000611bd9565b565b60008060006003600086815260200190815260200160002060030160008573ffffffffffffffffffffffffffffffffffffffff1673ffffffffffffffffffffffffffffffffffffffff168152602001908152602001600020905080600101548160000160009054906101000a900461ffff1692509250509250929050565b600080600080600085036111ef576000600260019054906101000a900463ffffffff1663ffffffff16116111c7576040517f08c379a00000000000000000000000000000000000000000000000000000000081526004016111be90612a31565b60405180910390fd5b6001600260019054906101000a900463ffffffff166111e69190612a51565b63ffffffff1694505b60006003600087815260200190815260200160002090508060000160009054906101000a900460ff168160000160019054906101000a900461ffff168260000160039054906101000a900461ffff1683600101549450945094509450509193509193565b60008111611296576040517f08c379a000000000000000000000000000000000000000000000000000000000815260040161128d906124b1565b60405180910390fd5b80600460003373ffffffffffffffffffffffffffffffffffffffff1673ffffffffffffffffffffffffffffffffffffffff168152602001908152602001600020541015611318576040517f08c379a000000000000000000000000000000000000000000000000000000000815260040161130f90612ad5565b60405180910390fd5b6000600360008563ffffffff16815260200190815260200160002090506000600281111561134957611348612219565b5b8160000160009054906101000a900460ff16600281111561136d5761136c612219565b5b146113ad576040517f08c379a00000000000000000000000000000000000000000000000000000000081526004016113a490612b41565b60405180910390fd5b8060000160019054906101000a900461ffff1661ffff168361ffff1610611409576040517f08c379a0000000000000000000000000000000000000000000000000000000008152600401611400906126f0565b60405180910390fd5b60008160030160003373ffffffffffffffffffffffffffffffffffffffff1673ffffffffffffffffffffffffffffffffffffffff1681526020019081526020016000206001015414611490576040517f08c379a000000000000000000000000000000000000000000000000000000000815260040161148790612bad565b60405180910390fd5b81600460003373ffffffffffffffffffffffffffffffffffffffff1673ffffffffffffffffffffffffffffffffffffffff16815260200190815260200160002060008282546114df91906127b2565b92505081905550818160020160008561ffff168152602001908152602001600020600082825461150f9190612500565b9250508190555060405180604001604052808461ffff168152602001838152508160030160003373ffffffffffffffffffffffffffffffffffffffff1673ffffffffffffffffffffffffffffffffffffffff16815260200190815260200160002060008201518160000160006101000a81548161ffff021916908361ffff16021790555060208201518160010155905050818160010160008282546115b49190612500565b925050819055508363ffffffff163373ffffffffffffffffffffffffffffffffffffffff167f24ad8a0d08d49d99f26d248dcfb4dfc91c6ee2183d64240be910d01ba4bebda8848660405161160a9291906121f0565b60405180910390a350505050565b60036020528060005260406000206000915090508060000160009054906101000a900460ff16908060000160019054906101000a900461ffff16908060000160039054906101000a900461ffff16908060000160059054906101000a900463ffffffff16908060010154905085565b600080600281111561169c5761169b612219565b5b6003600084815260200190815260200160002060000160009054906101000a900460ff1660028111156116d2576116d1612219565b5b149050919050565b6116e2611a02565b600060028111156116f6576116f5612219565b5b6003600083815260200190815260200160002060000160009054906101000a900460ff16600281111561172c5761172b612219565b5b1461176c576040517f08c379a000000000000000000000000000000000000000000000000000000000815260040161176390612c19565b60405180910390fd5b60016003600083815260200190815260200160002060000160006101000a81548160ff021916908360028111156117a6576117a5612219565b5b0217905550807feb7ecc3aa4dd407c7207677a2cbf861441d5c5e6c0dc70ad9692a980385c20d660405160405180910390a250565b6000811161181e576040517f08c379a0000000000000000000000000000000000000000000000000000000008152600401611815906124b1565b60405180910390fd5b61186b3330837f000000000000000000000000000000000000000000000000000000000000000073ffffffffffffffffffffffffffffffffffffffff16611a89909392919063ffffffff16565b80600460003373ffffffffffffffffffffffffffffffffffffffff1673ffffffffffffffffffffffffffffffffffffffff16815260200190815260200160002060008282546118ba9190612500565b9250508190555050565b6118cc611a02565b4781111561190f576040517f08c379a000000000000000000000000000000000000000000000000000000000815260040161190690612c85565b60405180910390fd5b611917610666565b73ffffffffffffffffffffffffffffffffffffffff166108fc829081150290604051600060405180830381858888f1935050505015801561195c573d6000803e3d6000fd5b5050565b60055481565b600260019054906101000a900463ffffffff1681565b611984611a02565b600073ffffffffffffffffffffffffffffffffffffffff168173ffffffffffffffffffffffffffffffffffffffff16036119f65760006040517f1e4fbdf70000000000000000000000000000000000000000000000000000000081526004016119ed9190612399565b60405180910390fd5b6119ff81611bd9565b50565b611a0a611c9d565b73ffffffffffffffffffffffffffffffffffffffff16611a28610666565b73ffffffffffffffffffffffffffffffffffffffff1614611a8757611a4b611c9d565b6040517f118cdaa7000000000000000000000000000000000000000000000000000000008152600401611a7e9190612399565b60405180910390fd5b565b611b05848573ffffffffffffffffffffffffffffffffffffffff166323b872dd868686604051602401611abe93929190612ca5565b604051602081830303815290604052915060e01b6020820180517bffffffffffffffffffffffffffffffffffffffffffffffffffffffff8381831617835250505050611ca5565b50505050565b611b85838473ffffffffffffffffffffffffffffffffffffffff1663a9059cbb8585604051602401611b3e929190612cdc565b604051602081830303815290604052915060e01b6020820180517bffffffffffffffffffffffffffffffffffffffffffffffffffffffff8381831617835250505050611ca5565b505050565b600260015403611bc6576040517f3ee5aeb500000000000000000000000000000000000000000000000000000000815260040160405180910390fd5b6002600181905550565b60018081905550565b60008060009054906101000a900473ffffffffffffffffffffffffffffffffffffffff169050816000806101000a81548173ffffffffffffffffffffffffffffffffffffffff021916908373ffffffffffffffffffffffffffffffffffffffff1602179055508173ffffffffffffffffffffffffffffffffffffffff168173ffffffffffffffffffffffffffffffffffffffff167f8be0079c531659141344cd1fd0a4f28419497f9722a3daafe3b4186f6b6457e060405160405180910390a35050565b600033905090565b600080602060008451602086016000885af180611cc8576040513d6000823e3d81fd5b3d925060005191505060008214611ce3576001811415611cff565b60008473ffffffffffffffffffffffffffffffffffffffff163b145b15611d4157836040517f5274afe7000000000000000000000000000000000000000000000000000000008152600401611d389190612399565b60405180910390fd5b50505050565b600082825260208201905092915050565b7f6f6e6c79206f776e65722063616e206465706f73697420657468000000000000600082015250565b6000611d8e601a83611d47565b9150611d9982611d58565b602082019050919050565b60006020820190508181036000830152611dbd81611d81565b9050919050565b600080fd5b6000819050919050565b611ddc81611dc9565b8114611de757600080fd5b50565b600081359050611df981611dd3565b92915050565b600060208284031215611e1557611e14611dc4565b5b6000611e2384828501611dea565b91505092915050565b600061ffff82169050919050565b611e4381611e2c565b82525050565b6000602082019050611e5e6000830184611e3a565b92915050565b600060ff82169050919050565b611e7a81611e64565b82525050565b6000602082019050611e956000830184611e71565b92915050565b611ea481611e2c565b8114611eaf57600080fd5b50565b600081359050611ec181611e9b565b92915050565b600060208284031215611edd57611edc611dc4565b5b6000611eeb84828501611eb2565b91505092915050565b600073ffffffffffffffffffffffffffffffffffffffff82169050919050565b6000611f1f82611ef4565b9050919050565b611f2f81611f14565b8114611f3a57600080fd5b50565b600081359050611f4c81611f26565b92915050565b600060208284031215611f6857611f67611dc4565b5b6000611f7684828501611f3d565b91505092915050565b611f8881611dc9565b82525050565b6000602082019050611fa36000830184611f7f565b92915050565b611fb281611e64565b8114611fbd57600080fd5b50565b600081359050611fcf81611fa9565b92915050565b600060208284031215611feb57611fea611dc4565b5b6000611ff984828501611fc0565b91505092915050565b600063ffffffff82169050919050565b61201b81612002565b811461202657600080fd5b50565b60008135905061203881612012565b92915050565b6000806040838503121561205557612054611dc4565b5b600061206385828601612029565b925050602061207485828601611eb2565b9150509250929050565b6000806040838503121561209557612094611dc4565b5b60006120a385828601611dea565b92505060206120b485828601611dea565b9150509250929050565b6000819050919050565b60006120e36120de6120d984611ef4565b6120be565b611ef4565b9050919050565b60006120f5826120c8565b9050919050565b6000612107826120ea565b9050919050565b612117816120fc565b82525050565b6000602082019050612132600083018461210e565b92915050565b60008115159050919050565b61214d81612138565b811461215857600080fd5b50565b60008135905061216a81612144565b92915050565b6000806040838503121561218757612186611dc4565b5b600061219585828601611dea565b92505060206121a68582860161215b565b9150509250929050565b600080604083850312156121c7576121c6611dc4565b5b60006121d585828601611dea565b92505060206121e685828601611f3d565b9150509250929050565b60006040820190506122056000830185611f7f565b6122126020830184611e3a565b9392505050565b7f4e487b7100000000000000000000000000000000000000000000000000000000600052602160045260246000fd5b6003811061225957612258612219565b5b50565b600081905061226a82612248565b919050565b600061227a8261225c565b9050919050565b61228a8161226f565b82525050565b60006080820190506122a56000830187612281565b6122b26020830186611e3a565b6122bf6040830185611e3a565b6122cc6060830184611f7f565b95945050505050565b6000806000606084860312156122ee576122ed611dc4565b5b60006122fc86828701612029565b935050602061230d86828701611eb2565b925050604061231e86828701611dea565b9150509250925092565b61233181612002565b82525050565b600060a08201905061234c6000830188612281565b6123596020830187611e3a565b6123666040830186611e3a565b6123736060830185612328565b6123806080830184611f7f565b9695505050505050565b61239381611f14565b82525050565b60006020820190506123ae600083018461238a565b92915050565b6123bd81612138565b82525050565b60006020820190506123d860008301846123b4565b92915050565b60006020820190506123f36000830184612328565b92915050565b7f72616365206e6f742066696e6973686564000000000000000000000000000000600082015250565b600061242f601183611d47565b915061243a826123f9565b602082019050919050565b6000602082019050818103600083015261245e81612422565b9050919050565b7f616d6f756e74206d757374206265203e20300000000000000000000000000000600082015250565b600061249b601283611d47565b91506124a682612465565b602082019050919050565b600060208201905081810360008301526124ca8161248e565b9050919050565b7f4e487b7100000000000000000000000000000000000000000000000000000000600052601160045260246000fd5b600061250b82611dc9565b915061251683611dc9565b925082820190508082111561252e5761252d6124d1565b5b92915050565b7f6e756d626572206f6620726163657273206d757374206265203e3d2032000000600082015250565b600061256a601d83611d47565b915061257582612534565b602082019050919050565b600060208201905081810360008301526125998161255d565b9050919050565b60006125ab82612002565b915063ffffffff82036125c1576125c06124d1565b5b600182019050919050565b7f6d75737420626520333025206f72206c65737300000000000000000000000000600082015250565b6000612602601383611d47565b915061260d826125cc565b602082019050919050565b60006020820190508181036000830152612631816125f5565b9050919050565b7f62657474696e67206e6f7420636c6f7365640000000000000000000000000000600082015250565b600061266e601283611d47565b915061267982612638565b602082019050919050565b6000602082019050818103600083015261269d81612661565b9050919050565b7f696e76616c696420726163657220696400000000000000000000000000000000600082015250565b60006126da601083611d47565b91506126e5826126a4565b602082019050919050565b60006020820190508181036000830152612709816126cd565b9050919050565b600061271b82611dc9565b915061272683611dc9565b925082820261273481611dc9565b9150828204841483151761274b5761274a6124d1565b5b5092915050565b7f4e487b7100000000000000000000000000000000000000000000000000000000600052601260045260246000fd5b600061278c82611dc9565b915061279783611dc9565b9250826127a7576127a6612752565b5b828204905092915050565b60006127bd82611dc9565b91506127c883611dc9565b92508282039050818111156127e0576127df6124d1565b5b92915050565b60006040820190506127fb6000830185611e3a565b6128086020830184611f7f565b9392505050565b7f616d6f756e74206578636565647320617661696c61626c6520746f6b656e7300600082015250565b6000612845601f83611d47565b91506128508261280f565b602082019050919050565b6000602082019050818103600083015261287481612838565b9050919050565b7f6e6f2062657420706c61636564206f7220616c7265616479207769746864726160008201527f776e000000000000000000000000000000000000000000000000000000000000602082015250565b60006128d7602283611d47565b91506128e28261287b565b604082019050919050565b60006020820190508181036000830152612906816128ca565b9050919050565b7f626574206e6f74206f6e2077696e6e696e672072616365720000000000000000600082015250565b6000612943601883611d47565b915061294e8261290d565b602082019050919050565b6000602082019050818103600083015261297281612936565b9050919050565b7f6e6f2062616c616e636520746f20776974686472617700000000000000000000600082015250565b60006129af601683611d47565b91506129ba82612979565b602082019050919050565b600060208201905081810360008301526129de816129a2565b9050919050565b7f6e6f207261636573206372656174656420796574000000000000000000000000600082015250565b6000612a1b601483611d47565b9150612a26826129e5565b602082019050919050565b60006020820190508181036000830152612a4a81612a0e565b9050919050565b6000612a5c82612002565b9150612a6783612002565b9250828203905063ffffffff811115612a8357612a826124d1565b5b92915050565b7f696e73756666696369656e742062616c616e6365000000000000000000000000600082015250565b6000612abf601483611d47565b9150612aca82612a89565b602082019050919050565b60006020820190508181036000830152612aee81612ab2565b9050919050565b7f72616365206e6f74206f70656e20666f722062657474696e6700000000000000600082015250565b6000612b2b601983611d47565b9150612b3682612af5565b602082019050919050565b60006020820190508181036000830152612b5a81612b1e565b9050919050565b7f616c726561647920706c61636564206265740000000000000000000000000000600082015250565b6000612b97601283611d47565b9150612ba282612b61565b602082019050919050565b60006020820190508181036000830152612bc681612b8a565b9050919050565b7f72616365206e6f74206f70656e00000000000000000000000000000000000000600082015250565b6000612c03600d83611d47565b9150612c0e82612bcd565b602082019050919050565b60006020820190508181036000830152612c3281612bf6565b9050919050565b7f696e73756666696369656e74206574682062616c616e63650000000000000000600082015250565b6000612c6f601883611d47565b9150612c7a82612c39565b602082019050919050565b60006020820190508181036000830152612c9e81612c62565b9050919050565b6000606082019050612cba600083018661238a565b612cc7602083018561238a565b612cd46040830184611f7f565b949350505050565b6000604082019050612cf1600083018561238a565b612cfe6020830184611f7f565b939250505056fea26469706673582212207612b43d24a40219ba31320970d82aff3c32b7576e705545083b4be8dbdccc6464736f6c63430008140033",
  "linkReferences": {},
  "deployedLinkReferences": {}
}